:100000000C943A000C94E4000C94E4000C94E4008A
:100010000C94E4000C94E4000C94E4000C94E400D0
:100020000C94E4000C94E4000C94E4000C94E400C0
:100030000C94E4000C94E4000C94E4000C94E400B0
:100040000C94E4000C94E4000C94E4000C94E400A0
:100050000C94E4000C94E4000C94E4000C94E40090
:100060000C94E4000C94E400010001020001D601AC
:100070000201038011241FBECFEFD8E0DEBFCDBF49
:10008000E8E6F0E040E017C0B591A59135912591E3
:10009000059107FD0CC095918591EF01F92FE82F8F
:1000A00005900D92A217B307D9F7FE0104C01D9267
:1000B000A217B307E1F7E437F40731F70E94DF0036
:0800C0000C94D400F894FFCF6A
:1000C800CF93DF9386B1C6B1C3FBCC27C0F982FBBF
:1000D800DD27D0F982FD1AC0809101018130B1F489
:1000E8002FEF80E792E0215080409040E1F700C078
:1000F800000086B182FBDD27D0F982FD07C0809120
:1001080002018F5F809302010E94C200C1111AC0D0
:10011800809100018130B1F42FEF80E792E0215007
:1001280080409040E1F700C0000086B183FBCC27F7
:10013800C0F983FD07C080910201815080930201BC
:100148000E94C200D0930101C0930001DF91CF91BA
:02015800089508
:10015A00F89484B18F6384B985B1807C85B987B1FD
:10016A00836087B987B1837F87B988B18C6088B982
:0A017A0088B18C7F88B9789408954D
:1001840095B180910201907C8F73892B85B998B1C8
:10019400809102019C7F8295869586958370892B38
:0401A40088B9089579
:1001A800EC010E94E9000E94E800CE010E94EA00EA
:0601B800CE010E94E600EA
:0A01BE000E94AD000E946400FDCF16
:0401C8000C94000093
:0401CC000E9462002B
:0201D000089590
:0201D20008958E
:0201D40008958C
:0101D6000127
:0101D7000126
:00000001FF
