:100000000C943A000C943E010C943E010C943E0179
:100010000C943E010C943E010C943E010C943E0164
:100020000C943E010C943E010C943E010C943E0154
:100030000C943E010C943E010C943E010C943E0144
:100040000C943E010C943E010C943E010C943E0134
:100050000C943E010C943E010C943E010C943E0124
:100060000C943E010C943E010100010200028A0141
:100070000201038011241FBECFEFD8E0DEBFCDBF49
:10008000E8E6F0E040E017C0B591A59135912591E3
:10009000059107FD0CC095918591EF01F92FE82F8F
:1000A00005900D92A217B307D9F7FE0104C01D9267
:1000B000A217B307E1F7E437F40731F70E940F0105
:0800C0000C942C01F894FFCF11
:1000C800C0F9A4B0999282F880908883C6A1868EE0
:1000D800CF93DF9386B1C6B1C3FBCC27C0F982FBAF
:1000E800DD27D0F982FD1AC0809101018130B1F479
:1000F8002FEF80E792E0215080409040E1F700C068
:10010800000086B182FBDD27D0F982FD07C080910F
:1001180002018F5F809302010E94FD00C1111AC085
:10012800809100018130B1F42FEF80E792E02150F7
:1001380080409040E1F700C0000086B183FBCC27E7
:10014800C0F983FD07C080910201815080930201AC
:100158000E94FD00D0930101C0930001DF91CF916F
:020168000895F8
:10016A00282F22952F708F7098B1906398B930E03C
:10017A0040E028533F4F4F4FF901949147FD90813A
:10018A009BB998B19F7E98B9EFE9FFE03197F1F7F3
:10019A0000C0000098B1906398B990E0A0E088533D
:1001AA009F4FAF4FFC018491A7FD80818BB988B125
:1001BA008F7D88B98FE99FE00197F1F700C00000B1
:0201CA00089596
:1001CC00F89484B18F6384B985B1807C85B987B18B
:1001DC00826087B987B1837F87B988B18C6088B911
:0E01EC008FE78AB987B1806387B97894089548
:1001FA0095B180910201907C8F73892B85B998B152
:10020A00809102019C7F8295869586958370892BC1
:04021A0088B9089502
:10021E000E94E6000E9437010E946C000E941E019F
:0E022E0096958795969587950E94B500F5CF19
:10023C00EAE7F0E080818064808380917A0086FD1B
:0C024C00FCCF809178009091790008951B
:10025800EC010E9443010E944201CE010E94440128
:06026800CE010E944001DE
:0E026E0086E480937C0087E880937A000895F0
:04027C000C940000DE
:040280000E94620076
:020284000895DB
:020286000895D9
:020288000895D7
:01028A000172
:01028B000171
:00000001FF
