:100000000C943A000C945E010C945E010C945E0119
:100010000C945E010C945E010C945E010C945E01E4
:100020000C945E010C945E010C945E010C945E01D4
:100030000C945E010C945E010C945E010C945E01C4
:100040000C945E010C945E010C945E010C945E01B4
:100050000C945E010C945E010C945E010C945E01A4
:100060000C945E010C945E01010001020002CA01C1
:100070000201038011241FBECFEFD8E0DEBFCDBF49
:10008000E8E6F0E040E017C0B591A59135912591E3
:10009000059107FD0CC095918591EF01F92FE82F8F
:1000A00005900D92A217B307D9F7FE0104C01D9267
:1000B000A217B307E1F7E437F40731F70E94F8001D
:0800C0000C944201F894FFCFFB
:1000C800C0F9A4B0999282F880908883C6A1868EE0
:1000D800CF93DF9386B1C6B1C3FBCC27C0F982FBAF
:1000E800DD27D0F982FD1AC0809101018130B1F479
:1000F8002FEF80E792E0215080409040E1F700C068
:10010800000086B182FBDD27D0F982FD07C080910F
:1001180002018F5F809302010E942201C1111AC05F
:10012800809100018130B1F42FEF80E792E02150F7
:1001380080409040E1F700C0000086B183FBCC27E7
:10014800C0F983FD07C080910201815080930201AC
:100158000E942201D0930101C0930001DF91CF9149
:020168000895F8
:10016A00CF92DF92EF92C82EC694C694C694C694D4
:10017A008F702BB1207898B1906398B9D12CE12C6B
:10018A006E2DA60148535F4F6F4F6A01E62EFA01A2
:10019A009491E7FC90819F77922B9BB998B19F7EAF
:1001AA0098B9EFE9FFE03197F1F700C0000098B184
:1001BA00906398B990E0A0E088539F4FAF4FFC013D
:1001CA008491A7FD80818F77282B2BB988B18F7DE9
:1001DA0088B98FE99FE00197F1F700C00000EF901E
:0601EA00DF90CF900895A4
:1001F0000E940E010E9457010E946C000E9434016F
:10020000EC01D695C795D695C7958C2F0E94B50061
:0C021000609102018C2F0E944D01EECF86
:10021C00F89484B18F6384B985B1807C85B987B13A
:10022C00837F87B988B18C6088B98FEF8AB987B121
:08023C00806387B978940895EE
:1002440095B180910201907C8F73892B85B998B107
:10025400809102019C7F8295869586958370892B77
:0402640088B90895B8
:10026800EAE7F0E080818064808380917A0086FDEF
:0C027800FCCF80917800909179000895EF
:10028400EC010E9463010E946201CE010E9464019C
:06029400CE010E94600192
:10029A00681720F48BB180688BB908958BB18F777A
:0402AA008BB908956F
:0E02AE0086E480937C0087E880937A000895B0
:0402BC000C9400009E
:0402C0000E94620036
:0202C40008959B
:0202C600089599
:0202C800089597
:0102CA000132
:0102CB000131
:00000001FF
